S00F00004469706C6F6D612E737265634F
S214080000880B0020290108002501080025010800A2
S2140800102501080025010800250108000000000049
S2140800200000000000000000000000002501080095
S2140800302501080000000000250108002501080029
S21408004025010800250108002501080025010800EB
S21408005025010800250108002501080025010800DB
S2140800602501080000000000591608006D16080053
S214080070811608002501080025010800250108004A
S21408008025010800250108002501080025010800AB
S214080090250108002501080025010800250108009B
S2140800A0250108002501080025010800250108008B
S2140800B025010800051D080010B5054C237833B93E
S2140800C0044B13B10448AFF300800123237010BD1E
S2140800D00C05002000000000242F08000C4B43B13C
S2140800E00C4810B50C49AFF300800C48036823B9D8
S2140800F010BD0A48036833B97047094B002BF7D080
S214080100BDE810401847064B002BF5D0184700BF2F
S21408011000000000242F080010050020242F0800E7
S21408012000000000FEE7000008B5184B184A9A427F
S21408013010D0184B154A9A420CD2013B9B1A23F052
S214080140030304331344124951F8040B42F8040B12
S2140801509A42F9D1104B114A9A420AD2013B9B1A8D
S21408016023F0030304331344002142F8041B93428C
S214080170FBD10B4B23F0604323F07F03094A9360BF
S214080180094B9847094B9847FEE700BF0000002038
S214080190242F08000C050020880700200C050020E6
S2140801A00000080000ED00E06D2C0800152C080083
S2140801B03D4B1B6B03F00303032B0ED8DFE803F05D
S2140801C0021C3838394B5B6913F0800F14BF4FF4A4
S2140801D000424FF4FA42364B1A60334B1B6B03F05F
S2140801E07003702B57D0304B1A6B3149C2F302128A
S2140801F00B68D3400B6070472B4B1B6A13F0807F4D
S21408020003D02C4A2A4B1A60E7E72B4A284B1A6079
S214080210254B1B6A03F07003102B05D0202BDCD16E
S214080220244A234B1A60D8E7244A214B1A60D4E79D
S2140802301D4B1B6A13F0807F0CD01E4A1C4B1A609D
S214080240194B1B6B03F00303022B16D01C4A184BE2
S2140802501A60C2E7184A164B1A60134B1B6A03F05B
S2140802607003102B05D0202BEAD1124A104B1A60C7
S214080270E6E7124A0E4B1A60E2E70B4A916A926A60
S2140802800B48C1F30A41036801FB0333D2B2B3FB40
S214080290F2F30360A1E7064A13680A49A1FB0313B1
S2140802A05B081360704700BF00040E4010120E4033
S2140802B00C000020001BB70000093D0000127A0061
S2140802C0001C4E0EABAAAAAA164B984212D9164B79
S2140802D0984216D9154B98421BD9154B984294BF8D
S2140802E04FF440734FF48063124A136002F50072AD
S2140802F01360704700230F4A136002F500721360FC
S21408030070474FF480730B4A136002F5007213604F
S21408031070474FF40073074A136002F500721360C3
S214080320704700BFFF356E01FF596202FFA14A04FD
S214080330FFBC010500080E4010B53E20074B984745
S214080340074CA0470028FCD04FF47102054BDA6131
S214080350054CA0470028FCD010BD00BFF9160800C1
S2140803602117080000040E408117080010B512482F
S214080370124B98473E20124B9847124CA04700282D
S214080380FCD04FF08070104B9847104CA0470028C0
S214080390FCD00F4B98470F4A0F4B9A620F4CA0475A
S2140803A00028FCD010200E4B98470E4B9847024862
S2140803B0024B984710BD00BF00D8B805C902080010
S2140803C0F916080021170800411708003117080019
S2140803D061170800013F0F2000040E40711708003F
S2140803E095160800B10108000E4900230B700E4A46
S2140803F013800E4AA12010702020507053809380DE
S2140804000220D08013810A4A4FF4E130106013713D
S2140804105371082393710B780133DBB20B700120FC
S214080420704700BF33050020C8050020600600207E
S2140804302C050020024A1378013BDBB21370704784
S21408044033050020044A1378013BDBB21370137897
S2140804500022024B1A707047340500202A05002037
S21408046000207047002070471D4B1B7813F0800F44
S21408047005D103F06003202B18D00020704703F046
S2140804806003202B01D000207047154B5B78212B8A
S21408049024D1134BDB88072B01D000207047104B64
S2140804A0104A9A6007229A81012070470C4B5878A8
S2140804B0202804D0222814BF002001207047084BAB
S2140804C0DB88072B01D000207047054B064A1A61C7
S2140804D0044A9A6007229A810120704700207047D4
S2140804E04C0700202C050020ED040800704700008B
S2140804F0444B1B7803B1704770B584B0424B98479D
S214080500002841D0414B1C88414B9847844276D0FE
S214080510EFF31083B3FA83F35B09039372B6BFF362
S2140805205F8F00223B4B1A70039D3B4B1C78E4B24E
S2140805303A4B33F81430002B2DD00022384B1A8053
S214080540384B1B78002B42D1B4FA84F35B09324A45
S214080550137001222B4B1A7025B12E4B1A70BFF35D
S2140805605F8F62B626462D4B33F81430402B14BFE7
S2140805700125002534D0244B984700282BD0244B3F
S2140805809847224B18802EE0204B1C88264B98470D
S2140805908442BDD133E0224A1388013313801A4BB4
S2140805A0984718B91E4B1B88632B08D9164B9847D3
S2140805B00028C2D01A4B1B88B3F5487FBDD2F5B1C8
S2140805C00122144B1A70BFF35F8F62B617E0B4FAB5
S2140805D084F46409BDE7144B98470C4B188002E076
S2140805E000220A4B1A800D4B33F816300F4A009239
S2140805F00F4A02EB8412294681200E4CA04704B00D
S21408060070BD00BF5C060020B52408005806002010
S21408061001250800DA0000205406002050060020B5
S21408062028050020CC050020F1240800390608001B
S214080630D00500206527080000B1704708B5074BAD
S2140806401B78B3FA83F35B09054A22F81300054BB7
S2140806501870054B1870054B984708BD54060020BF
S21408066050060020CC0500205C060020F104080097
S21408067008B50020014B984708BD00BFF1040800E4
S21408068082B0EFF31083B3FA83F35B09019372B673
S214080690BFF35F8F00220B4B1A7001990A4B18881C
S2140806A083B20A4A1278D2B2094830F8120080B2E9
S2140806B0C01A29B10122034B1A70BFF35F8F62B6C6
S2140806C002B07047DA000020C0050020BC050020F4
S2140806D0B805002008B5034B9847003018BF01201E
S2140806E008BD00BF8106080010B584B0EFF310837C
S2140806F0B3FA83F35B09039372B6BFF35F8F0022E6
S2140807001E4B1A70039B1E4A14781E4A12784AB962
S214080710E4B21D4A118889B21C4A32F8142092B2F3
S214080720914209D23BB30122144B1A70BFF35F8F74
S21408073062B6002004B010BD0021134A1180B4FA36
S21408074084F252090E490A7001210E4A117023B12B
S2140807500A4B1970BFF35F8F62B600200C4B9847A0
S2140807600C4B009340230C4A02EB84120121022012
S2140807700A4CA047DEE70020DCE700BFDA000020CE
S214080780BC050020C4050020C0050020B8050020D0
S214080790D506080035080800380500206527080033
S2140807A010B50024164B1C70164B1C70164B1C708C
S2140807B0164B1C70164B1C805C80164B1C80204603
S2140807C0154B9847154B1C70154B1C70154B1C8009
S2140807D05C80154B1C802046144B9847014640B158
S2140807E0074A13780133DBB213701378DBB2012B98
S2140807F001D0084610BD01220D4B1A70F9E700BF5C
S214080800340500205C060020CC0500205406002095
S2140808105006002058060020F1040800C4050020F1
S214080820BC050020B8050020C0050020E906080021
S2140808302A050020E8B910B582B010460D4B1C7882
S214080840B4FA84F4640951B189B20B4B23F8141036
S21408085000200A4B18700A4B984702B010BD094B87
S21408086000934023084A02EB84120121074CA04754
S214080870F3E77047BC050020B8050020C405002033
S214080880E90608003508080038050020652708002E
S2140808902DE9F04782B0254B93F80680B8F1090F8A
S2140808A014BF4FF000084FF001084FF0000A204C24
S2140808B0D14657461F4D204E04E08B4223D31F4B8C
S2140808C01B78D3B1EFF31083B3FA83F35B09019374
S2140808D072B6BFF35F8F277001982B889BB2327869
S2140808E0D2B2174931F8121089B20028E5D0012093
S2140808F02070BFF35F8F62B6DFE74FF0000A5046FE
S21408090002B0BDE8F0870F4901EB8212D25C42EADA
S2140809100A0A01339BB22B8048460B4B9847B8F11E
S214080920000FECD04FEA0A2AC846CBE72C05002071
S214080930DA000020C0050020BC0500202A0500209B
S214080940B805002038050020E906080008B500208C
S214080950014B984708BD00BF9108080082B0EFF326
S2140809601083B3FA83F35B09019372B6BFF35F8F04
S2140809700022144B1A70019A134B1B78DBB21349EA
S21408098031F8130040280AD0C0F140002AB10122ED
S2140809900C4B1A70BFF35F8F62B602B070470C49F3
S2140809A009780029F0D10B4909780029ECD10120F3
S2140809B008490870B3FA83F35B0903490B700020F3
S2140809C0E2E700BFDA0000205406002050060020A8
S2140809D05C060020CC05002008B5034B984700307D
S2140809E018BF012008BD00BF5D0908002DE9F04FBB
S2140809F083B01746224B9B79092B08BF57008846B9
S214080A00DFF894A030E0EFF31083B3FA83F35B09C2
S214080A10019372B6BFF35F8F00231A4A1370DDF88E
S214080A2004B0194B1D78EDB2DFF8709039F81560F0
S214080A30C6F14004BC4228BF3C4606EB8513224656
S214080A40414612481844124B9847264429F8156020
S214080A50BBF1000F05D001230A4A1370BFF35F8F5E
S214080A6062B6A0443F1B07D00020D0470028CAD152
S214080A70084B1B78002BF7D1384603B0BDE8F08F3B
S214080A802C050020DA00002054060020D00500209F
S214080A90BD2C08002A050020D909080050060020A9
S214080AA008B50A4601460020014B984708BD00BF16
S214080AB0ED090800104B1B681A6853881A44037817
S214080AC01844904211D24378042B10D08B4209D098
S214080AD003781844904206D24378042B09D08B42F8
S214080AE0F6D107E0704700207047002070470020C6
S214080AF070470020704700BF7806002008B5034BF3
S214080B00987800F07F00024B984708BD4C070020F5
S214080B10B9240800194B1B784BB3194B1B681B6884
S214080B201A79824225D970B4164A13605C881C4428
S214080B30A34220D20025012607E0124A13600FE0E0
S214080B401A7813443546A3420CD25A78042AF7D1A9
S214080B509A788242F4D1DA788A42F1D1002DECD123
S214080B60012002E0074A1360002070BC704700208E
S214080B707047002070470020F7E700BF7406002083
S214080B80780600207C0600202DE9F843044600215C
S214080B90134B9847804610B94046BDE8F883114B7A
S214080BA01B685B6853F82490D9F80C3098470146C0
S214080BB020460B4B984780460028EDD00A4B1C6809
S214080BC005260A4D0A4F31462046A847044610B166
S214080BD08078B847F7E7D9F804309847DCE700BFCD
S214080BE0150B0800780600207C060020B50A0800C9
S214080BF01D2508002DE9F0418046104B984703460E
S214080C00C8B10F4B1C6805260E4D0F4F31462046BF
S214080C10A847044638B18288C1788078B847034622
S214080C200028F3D107E0094B1B685B6853F82830A7
S214080C301B68984703461846BDE8F081150B080060
S214080C407C060020B50A08006928080078060020F7
S214080C5008B5014B984708BDB523080070B50D4B7D
S214080C601B7883B10C4B1B681B681B795BB100248F
S214080C700A4E094D2046B0470134E4B22B681B687B
S214080C801B79A342F6D80022024B1A700122044BA5
S214080C901A8070BD7406002078060020890B0800AC
S214080CA06A06002038B50D4B1B78B3B10C4B1B6891
S214080CB01A6812798AB10024094D06E00134E4B2B4
S214080CC02B681A681279A24207D95B6853F8243051
S214080CD01B69002BF2D09847F0E738BD7406002051
S214080CE078060020F8B5884B00229A811A615A6166
S214080CF01B7813F0800F14D113F0600F00F0D58026
S214080D00814B1B7803F01F03012B00F06C817E4B90
S214080D101B7803F01F03022B00F0C7810023184638
S214080D20F8BD794AD288002A00F0E88113F0600FEF
S214080D30E6D113F01F0306D173494978062914D063
S214080D40082974D051B1012B79D0022BD8D16E4B1B
S214080D505B78002B00F09B80002388E1022AD6D11E
S214080D6002216A486A4B9847BBE0674B5A88130AC1
S214080D70013B0E2B00F27881DFE813F00F001D0010
S214080D8037007601760176017601760176017601DE
S214080D9076017601760176012F005E4B1868017899
S214080DA05B4B9847584BDA889B89934240F2998068
S214080DB0554B9A8195E0D2B2564B1B685B7C9342A2
S214080DC0A5D9544B5B6853F832004188504B984776
S214080DD04D4B9B6802225A70E4E74E4B98680028F1
S214080DE095D041884A4B9847DCE7D2B2012A1BD0F7
S214080DF0AAB1022A84D14849092201394748002362
S214080E0011F8014F20F8024F0133DBB29342F7D3B3
S214080E105200911C414801703D4B9847C2E7042197
S214080E203F483B4B9847BDE73E490822E5E7012A7D
S214080E307FF46DAF01213C48354B984751E0324965
S214080E4049780A2981D1012A40F0CD80364B1B7893
S214080E50002B00F0C8802C4B1C79344B1D682B687F
S214080E601B79A34240F2BF8000212046304B9847AA
S214080E7000283FF445AF6B6853F82430DB68984782
S214080E802C4B187001211846214B984729E0022A56
S214080E907FF43DAF1C4B1879274B9847274B188093
S214080EA0022118461A4B98471BE013F01F0340F020
S214080EB08380154A5278013A082A7DD8DFE812F06E
S214080EC013007C00D6007C0009007C007C007C00B7
S214080ED042000D4BDB88002B7FF419AF184A0A4BEB
S214080EE01A6101231BE7084BDB88002B7FF40FAF42
S214080EF0054B5B88012B7FF40AAF044A138823F05E
S214080F0002031380EDE700BF4C0700206A060020A6
S214080F101125080038000020D0000020AC00002072
S214080F20C0000020C40000207406002078060020B8
S214080F30150B080070060020712508006C060020B6
S214080F40FD0A08006F4BDB88002B7FF4E0AE6E4B83
S214080F50984700283FF4D4AE6A4B9A786B4B1B68C8
S214080F605B7C9A423FF7CCAE694B9847654B9B78BB
S214080F70684A1370002BB4D003F10053013B634A50
S214080F80526802EBC3006449086052F833301B7994
S214080F90002BA6D000242646604D0F463146204634
S214080FA0A84700283FF4ACAE0134E4B23B681B689F
S214080FB01B79A342F2D894E7012B0AD0022B7FF4C0
S214080FC09FAE504B5B78012B2BD0032B39D00023D8
S214080FD04DE04C4A52780B2AF0D14A4BDB8813B9BD
S214080FE04C4B1B7873B94B4B1B78002B00F0888052
S214080FF0444B1C79484B1D682B681B79A3423AD88A
S21408100000238CE63F4B1C795D882046444B984766
S21408101000283FF475AEE9B22046404B9847034691
S21408102025E0384BDB88002B7FF471AE354B5B88A8
S214081030002B7FF46CAE334B18793A4B984703462F
S21408104015E0304BDB88002B7FF461AE2D4B5B88B8
S214081050002B7FF45CAE2B4C2079334B98472079D5
S214081060324B9847034602E0002300E00023002B9B
S2140810707FF455AE44E6002120462D4B98470028BD
S2140810803FF445AE6B6853F82450EB689847014622
S2140810902046274B984700283FF439AEAB68984758
S2140810A0034600287FF43BAE31E61A4B1B780BB399
S2140810B0194B1A6813681B79F3B100241C4E164F97
S2140810C0536853F82450EB68984701462046B047C3
S2140810D0034600283FF423AEAB689847034600282B
S2140810E07FF41DAE0134E4B23A6811680979A1426A
S2140810F0E6D814E6002312E6002310E600230EE6E0
S21408110000230CE64C070020E124080038000020E5
S2140811105D0C08007406002078060020F50B080011
S214081120890B08006D2608000D2B0800A525080069
S214081130150B080070B54FF400427C4B5A600A2025
S2140811407B4CA0470B20A0470C20A0474FF06051CF
S2140811502020784CA0474FF060512120A0477649C0
S2140811601220A04775491320A0474FF000624FF49D
S214081170C0517348734B98474FF000610D20A04745
S2140811804FF000610E20A0474FF000610F20A047E7
S2140811904FF000611020A0474FF080510120A04773
S2140811A04FF000611520A0474FF000611420A047BB
S2140811B0654D29462920A04729462A20A0472946C2
S2140811C02B20A04729462C20A04729462D20A0479B
S2140811D029462E20A04729462F20A04729463020FA
S2140811E0A04729463920A04729463A20A04729463D
S2140811F03B20A04729463C20A04729463D20A0473B
S21408120029463E20A04729463F20A0474F4E314654
S2140812102620A04729463320A04729463720A0473E
S21408122029463420A04731462720A04729464F2084
S214081230A04731462820A04729464020A0472946EF
S2140812404120A04729464220A04729464320A047D8
S21408125029464420A04729464520A0472946462037
S214081260A04729464720A04729464820A0472946A0
S2140812704920A04729464A20A04729464B20A04790
S21408128029465420A04729465520A04729465620D7
S214081290A04729465720A04729465820A047294650
S2140812A05920A04729465A20A04729462920A04762
S2140812B029462A20A04729462B20A04729462C2025
S2140812C0A04729462D20A04729462E20A047294674
S2140812D02F20A04729463020A04729463920A04776
S2140812E029463A20A04729463B20A04729463C20C5
S2140812F0A04729463D20A04729463E20A047294624
S2140813003F20A04731462620A04729463320A0473D
S21408131029463720A04729465020A047314628208E
S214081320A0474FF040515320A04770BD50120E40C2
S214081330911708009D140800730000285300002821
S214081340000C0E406D150800010000080100001092
S2140813502DE9F04106460024094D0A4FDFF828809B
S21408136003E0C0470834182C08D06059B042F9D1B9
S2140813702B195B68012BF4D0B847F3E7BDE8F0817A
S214081380C82E080067140800811408002DE9F041EB
S21408139006460024094D0A4FDFF8288003E0C047B8
S2140813A00834182C08D06059B042F9D12B195B685C
S2140813B0012BF4D0B847F3E7BDE8F081C82E080043
S2140813C081140800671408004264B1F1805F16D0E3
S2140813D00BD849B1B1F1006F05D1036F016F0B400F
S2140813E023EA0203036742607047B1F1405FFBD00F
S2140813F0B1F1605FF8D0B1F1205FF4D17047036FA8
S21408140013430367EFE7416412F0010F14BF416608
S214081410016612F00A0F14BF0162416212F0020F51
S21408142007D112F0080F18BFC0F884104161016098
S2140814307047C0F88010F9E710B4019C416444B9BD
S214081440016643B1016542B941630161016010BCA0
S21408145070474166F5E74165F5E70163F5E7C06C57
S2140814607047806C7047430903F5001303F2067350
S2140814705B0200F01F00012202FA00F018637047B2
S214081480430903F5001303F206735B0200F01F001E
S214081490012202FA00F058637047000070B582B067
S2140814A00D46430903F5001303F206735C0201F0C8
S2140814B0F043B3F1205F31D016D8B3F1006F1BD0DC
S2140814C0B3F1805F16D100F01F0001268640324631
S2140814D04FF080512046224B984715F0010F14BF55
S2140814E066662666012017E0B3F1405F21D0B3F1A7
S2140814F0605F1ED000200FE000F01F000126864027
S21408150032464FF000612046154B984715F0010FFC
S21408151014BF66662666012002B070BD00F01F0183
S21408152001262A4606FA01F120460E4B9847304611
S214081530F2E705F0605200F01F01012605EA0603EF
S2140815400093C5F38003B2F1605F14BF0022012246
S21408155006FA01F12046044CA0473046DCE700BFF7
S214081560C9130800071408003914080070B582B0BB
S21408157005460E46144602F0F043B3F1205F27D026
S21408158011D8B3F1006F16D0B3F1805F11D10A46B7
S2140815904FF08051194B984714F0010F14BF6E6630
S2140815A02E66012012E0B3F1405F15D0B3F1605FFC
S2140815B012D000200AE00A464FF000610F4B984709
S2140815C014F0010F14BF6E662E66012002B070BDBF
S2140815D00B4B98470120F9E704F0605204F001032A
S2140815E00093C4F38003B2F1605F14BF00220122A7
S2140815F031462846034CA0470120E7E7C9130800F0
S21408160007140800391408002DE9F04104468846F6
S2140816100E4B9847054620460D4B9847054013D075
S2140816200C4C04F1600603E0B4420DD010345DB1F2
S21408163020684045F8D161682942F5D0E3689847A4
S214081640636825EA0305EFE7BDE8F0815F14080044
S214081650631408008006002008B50A210148024BDA
S214081660984708BD000C0E400916080008B50B215F
S2140816700148024B984708BD000E0E4009160800A0
S21408168008B50C210148024B984708BD00100E40CB
S21408169009160800174A136B23F0700318431063E3
S2140816A0936E13F0080F0AD14FF4006311498A6E3F
S2140816B012F0080F03D1013BF9D1012070470D4AFB
S2140816C0136B23F0030343F002031363936E13F0C4
S2140816D0080F0AD14FF4006306498A6E12F0080F05
S2140816E005D1013BF9D10120704700207047002042
S2140816F0704700BF00040E40084A136A23F003032D
S21408170043F45C1343F00103000280B20343136200
S214081710936E13F0010FFBD0704700BF00040E4015
S214081720024B986E00F00100704700BF00040E40A0
S214081730024B986E00F48030704700BF00040E40DD
S214081740064B1B6A30B923F0807343F45C13034AD4
S2140817501362704743F08073F7E700BF00040E403B
S2140817604FF00052014B9A62704700BF00040E40CB
S214081770024B986E00F00200704700BF00040E404F
S214081780024B986E00F04000704700BF00040E4001
S2140817901D280ED81F280ED8094B9A6901238340A6
S2140817A093430AD0012303FA00F0054B1861002082
S2140817B0704701207047002070470020704700BF20
S2140817C000040E401D2810D81F2810D8094B9A6907
S2140817D001238340934301D000207047012303FA76
S2140817E000F0044B58610020704701207047002025
S2140817F0704700BF00040E40034B1A6FC0F3120078
S21408180010431867704700BF00040E40024B187854
S21408181080F00100704700BFF006002082B0014645
S21408182028BB244B1B781BB9224B197002B0704793
S214081830214B9B7803B9FEE7EFF31083B3FA83F3E3
S2140818405B09009372B6BFF35F8F00221B4B1A70BA
S2140818500098194A9378013B93700028E4D0012237
S214081860164B1A70BFF35F8F62B6DDE7FEE7114BC3
S2140818701B78002BD8D1104B9B78FF2BF6D0EFF3B4
S2140818801083B3FA83F35B09019372B6BFF35F8FD5
S21408189000220A4B1A700198074A9378013393700E
S2140818A00028C1D00122054B1A70BFF35F8F62B6BD
S2140818B0BAE700BFF206002044070020DA0000203E
S2140818C082B0EFF31083B3FA83F35B09019372B621
S2140818D0BFF35F8F00220E4B1A70019B4FF4806196
S2140818E00C4AC2F808112BB10122094B1A70BFF333
S2140818F05F8F62B64FF40072064BC3F81821064A8B
S2140819000023136153619381044A137002B0704731
S214081910DA00002000400A404C070020F8060020A5
S2140819200522034B1A702022024BC3F81421704775
S214081930F806002000400A4082B00322144B1A70B2
S214081940EFF31083B3FA83F35B09019372B6BFF320
S2140819505F8F00220F4B1A7001990F4B4FF480626D
S214081960C3F818214FF40060C3F81401C3F8042123
S2140819704FF40042C3F81821C3F8042129B1012204
S214081980044B1A70BFF35F8F62B602B0704700BF91
S214081990F8060020DA00002000400A4008B5024B8E
S2140819A01B6903B1984708BD4C07002030B585B0C1
S2140819B0EFF31083B3FA83F35B09019372B6BFF3B0
S2140819C05F8F0022524B1A70019B4FF48061514A78
S2140819D0C2F808112BB101224D4B1A70BFF35F8F66
S2140819E062B64D4B1B78032B5ED04C4B1B884C4A7B
S2140819F09489E41AA4B2C4B94A4A11880B449BB223
S214081A001380474AD2889A4253D0474B1B78002BFC
S214081A104FD1434B5B69002B6AD09847002867D0A4
S214081A2000223E4B1A803E4B9C893F2C60D90022F0
S214081A303D4B1A7040243A4B9A68384B1D88EFF392
S214081A401083B3FA83F35B09029372B6BFF35F8F12
S214081A5000212F4B197002982E4BD3F81C3113F423
S214081A60007F49D144B12A44304B12F8011B03F8D1
S214081A70011BD9B2A142F8D3284B1A8814441C80FB
S214081A80244B4FF48062C3F818214FF40061C3F862
S214081A901411C3F80421002838D001221C4B1A70F0
S214081AA0BFF35F8F62B631E0214B9847214B9847CA
S214081AB02CE00422184B1A70EFF31083B3FA83F362
S214081AC05B09039372B6BFF35F8F0022104B1A7040
S214081AD00399104B4FF48042C3F81821C3F8042129
S214081AE0A1B101220A4B1A70BFF35F8F62B60DE0F0
S214081AF001220D4B1A709EE728B10122044B1A707A
S214081B00BFF35F8F62B60422034B1A7005B030BD70
S214081B10DA00002000400A40F8060020F4060020FC
S214081B204C070020F6060020F106002000001820CA
S214081B309D190800C118080038B5037D13F0010F79
S214081B4013D00D46037D6FF300030375046864B174
S214081B5002F108035B010549CB5813F0080F18BFBC
S214081B6042F0800281682846A04738BD00400A40F7
S214081B70431E03EB43015E4A02EBC102127D12F0DC
S214081B80010F00F0B380F0B583B00A46584901EB60
S214081B90C202D568926895427DD0521BB2F5803F46
S214081BA092BF17044FF480320027410101F140210B
S214081BB001F52021D1F8004114F0080F14D0D1F80F
S214081BC0004104F007040821A1400139114213D04E
S214081BD047F0080703EB4301454C04EBC1010C7DB5
S214081BE06FF341040C7507E0D1F80041C4F3011403
S214081BF0012C39D047F014073E4C04EB001403EBD5
S214081C0043013B4E06EBC10149680D446560EFF39E
S214081C101081B1FA81F14909019172B6BFF35F8F5D
S214081C20002535490D70019DE16811F0100F24D18B
S214081C3047F02107A76003EB430006EBC001C8681E
S214081C401044C8600A612D4A11694FF0007000FA06
S214081C5003F30B431361002D39D00122264B1A706B
S214081C60BFF35F8F62B632E0D1F8004104F0070494
S214081C700821A1408A42BFD8BCE72DB101211E4ADF
S214081C801170BFF35F8F62B603EB4302184901EB8E
S214081C90C202D1689160420102F1402202F5202278
S214081CA0D2F8001111F0080F08D003EB4301104CCE
S214081CB004EBC101097D11F0020F0AD1024603EBBD
S214081CC0430300210A4800EBC3000D4B984703B0B6
S214081CD0F0BD4FF40063C2F80431084B19694FF49D
S214081CE0807202FA00F008431861F0E7704700BFF8
S214081CF0FC06002000430A40DA00002000400A40A4
S214081D00391B08002DE9F04184B01D20A54B9847E3
S214081D10A54B984720B9A54B5B6913F0020F0ED068
S214081D20A24B5B6913F0080F13D0A04B08229A61E8
S214081D305B6913F0010F09D004B0BDE8F08172B6F4
S214081D40BFF35F8F00229A4B1A70F5E7994B9847B6
S214081D50F2E7964B5B6913F0040F37D1934AD2F833
S214081D601C31526912F4807F29D0904A4FF4804182
S214081D70C2F808114FF40041C2F8081113F4805F46
S214081D802AD113F4806F06D0884AD2F80C2112F4B0
S214081D90806F40F08F8013F4007F40F08E8013F43D
S214081DA0005F04D04FF40051804AC2F8181113F4AB
S214081DB0004F40F0398113F4804F40F04A810123E8
S214081DC07A494FF0007E4FF4807C93E10422774BEB
S214081DD09A61784B9847AFE7774B1B78002B46D12C
S214081DE0724BD3F81C31C3F30A53082B44D1734AF9
S214081DF0734B744813F8011B02F8011F8342F9D18C
S214081E00714B984700283FD04FF48052674BC3F871
S214081E1018216E4B93F90030002B3DDB6B4BDB88AB
S214081E20002B44D000226A4B1A806A4B1A80012184
S214081E30614B19705D494FF48040C1F81801EFF303
S214081E401083B3FA83F35B09019372B6BFF35F8F0F
S214081E50574B1A70019BC1F80401002B3FF46CAF76
S214081E600122534B1A70BFF35F8F62B664E75A4B72
S214081E7098475A4B9847B3E7594B98474FF48052C0
S214081E804A4BC3F8182157E7554B98474FF48052EA
S214081E90464BC3F818214FE700234D4A13804D4A96
S214081EA013800222444B1A704E4B984744E74E4B19
S214081EB0984741E74B4B98473EE73F4B1B78012B2B
S214081EC00BD0022B04D0042B02D0454B984701E0D8
S214081ED0414B9847414B98472EE7344BD3F81C01A3
S214081EE0C0F30A50394B9B893A4A14882218934201
S214081EF0BCBF1B1B98B2354B9A6878B1631E1A4450
S214081F002F4B13F8011B02F8011FD9B28142F8D3F0
S214081F100444A4B22F4B1C8040280ED02B4B9C8127
S214081F205B6913B19847002834D04FF400721F4BF2
S214081F30C3F818212C4B9847FEE6244BDA88244B26
S214081F401B8823449A42E9DD204B9B89A3424DD047
S214081F50164A4FF40073C2F818314FF48041C2F89D
S214081F601811EFF31083B3FA83F35B09029372B682
S214081F70BFF35F8F00200E4B1870029BC2F8041147
S214081F80002B3FF4D9AE0122094B1A70BFF35F8FBE
S214081F9062B6D1E6124B98474FF40072034BC3F86B
S214081FA01821C9E6911708000D18080000400A40D5
S214081FB0DA000020A50C0800F80600204B070020D1
S214081FC00000182008001820E50C08004C07002020
S214081FD0F6060020F40600209D190800C11808001F
S214081FE021190800AD19080039190800A04B5B69CB
S214081FF053B1984780B19F499F4A0B88108803447D
S2140820000B8000231380A3E79C4B98474FF400727D
S2140820109B4BC3F818218FE6984B98474FF40072ED
S214082020974BC3F8182187E6954B4FF40042C3F840
S2140820301821D3F81C3113F4806F7FF47DAE914BD2
S2140820401B78032B7FF478AE20228D4BC3F814211F
S21408205072E68B4B4FF48042C3F81821D3F81C3134
S21408206013F4007F7FF468AE864B1B78012B07D0ED
S214082070042B7FF461AE2022814BC3F814215BE663
S214082080814B984758E6814B03EB0213D96811F049
S214082090010F7FF451AE7A48016921EA0606066107
S2140820A0DD682D0C0AD07A4B4FEA480000EB08048E
S2140820B003EBC404E168491BE160A1601046754B58
S2140820C0984739E6630103F1402303F520234FF4CC
S2140820D00061C3F80811C3F8141105EB4505002183
S2140820E06B4800EBC5006C4B984725E60133042B7C
S2140820F000F0DE80DAB21C465D1EA8460F690EFAAE
S21408210005F6374202D048690642BCD10F690CFA78
S21408211004F63742EAD001EB4410D0F80C0110F46C
S214082120006F06D001EB4410D0F81C0110F4006FC5
S214082130C8D001EB4412D2F80C2112F4802FD5D067
S21408214001EB4412D2F81C2112F4402FCED14C4B8E
S21408215003EB44144FF48022C4F808211A6922EAD3
S21408216006061E6108EB4808494B03EBC80898F8B2
S21408217014206FF3820288F81420D4F8083123F06C
S2140821800203C4F808312023C4F814314023C4F8E5
S2140821901831D1E53A4C1023A3613D4E0122114671
S2140821A030463D4DA8470222012106F11800A847EF
S2140821B00322012106F13000A847384B98472368C8
S2140821C023F07F032360236843F080032360D4F85A
S2140821D0003123F47F7323F0030343F04303C4F86A
S2140821E000310123C4F80431EFF31083B3FA83F304
S2140821F05B09039372B6BFF35F8F0022284B1A70F1
S214082200039A4FF48053C4F804314FF40073C4F8AB
S2140822100431236943F4807323612AB10122204BD9
S2140822201A70BFF35F8F62B61E4B9847144B1A6935
S21408223042F008021A611A6942F004021A611A6921
S21408224042F002021A6177E50D4B20229A611A695C
S21408225022F002021A611A6942F020021A6102226A
S2140822609A611D20104B98470020104B984763E54D
S2140822704C070020F6060020F40600202119080066
S21408228000400A40F80600203919080000430A40B2
S214082290FC060020711B0800391B08005D0C0800AE
S2140822A0DA000020C1180800C51708001D18080025
S2140822B0174B5B6913F0100F7FF46CAF144B1B6958
S2140822C013F0020F04D0124B5B6913F0020FBBD158
S2140822D00F4B5B6913F0200F3FF42EAD01200D4B1A
S2140822E098470B4B02229A6120229A611A6922F0BB
S2140822F020021A611A6942F002021A611A6942F04B
S21408230008021A611A6942F004021A6114E500BF4D
S21408231000400A401D18080010B582B0EFF310837D
S214082320B3FA83F35B09019372B6BFF35F8F00229B
S2140823301B4B1A70019C01201A4B98471D201A4BFC
S21408234098471A4B1A6842F400621A601A6822F410
S21408235000721A601A6942F010021A611A6942F08D
S21408236002021A611A6942F020021A611A6942F0DA
S21408237008021A6108229A6104229A6110229A6158
S21408238002229A6120229A611D20094B98472CB197
S2140823900122034B1A70BFF35F8F62B602B010BDFE
S2140823A0DA0000201D1808009117080000400A40AF
S2140823B0C517080030B583B0344B98471D20344BFA
S2140823C09847EFF31083B3FA83F35B09009372B66A
S2140823D0BFF35F8F00242F4B1C70009D2E4A136896
S2140823E043F4807313602D4B502183F81D134FF070
S2140823F0005119602A4B197D01F0FE0164F3820131
S214082400197593F82C1001F0FE0164F3820183F825
S2140824102C1093F8441001F0FE0164F3820183F84F
S2140824204410D2F8E03043F00303C2F8E0304FF42B
S21408243080201C4B98471C4B1C701C4BDB78FF2BD2
S21408244022D0EFF31083B3FA83F35B09019372B6D5
S214082450BFF35F8F00220F4B1A700199134AD37887
S2140824600133D37029B101220A4B1A70BFF35F8F6C
S21408247062B60F4B98472DB10122064B1A70BFF370
S2140824805F8F62B603B030BDFEE700BF39030800B1
S21408249091170800DA00002000400A4000E100E03A
S2140824A0FC060020F9170800F20600204407002062
S2140824B01923080000207047084B1A6822F080028B
S2140824C01A601A6822F07F0200F07F0002431A6042
S2140824D01A6842F080021A60704700BF00400A403F
S2140824E0024B186800F07F00704700BF00400A40A3
S2140824F0024B5868C0F3CA00704700BF00400A4045
S214082500024B586800F00700704700BF00400A40BA
S214082510014B9860998170474C07002000F00F0225
S214082520032A00D9704770B5530103F1402000F51F
S21408253020200121C0F808110346D0F8000120F039
S214082540C000C3F80001561E074C06FA01F5A81984
S21408255004EBC000054B9847354404EBC504237DBF
S2140825606FF38203237570BDFC060020391B080034
S21408257000F00F00430103F1402303F52023D3F8AE
S2140825801C3113F0200F09D1013800EB4000044B32
S21408259003EBC000007DC0F3800070470120704741
S2140825A0FC06002000F00F03032B52D85A0102F154
S2140825B0402202F52022D2F81C2112F0200F4AD120
S2140825C010B4591E01EB4104264A02EBC402127DE0
S2140825D012F0040F41D112F0010F41D110F0800F14
S2140825E013D15B0103F1402303F52023D3F8082118
S2140825F022F00202C3F808214FF40052C3F818214B
S2140826002022C3F81421012028E05A0102F14022B2
S21408261002F52022D2F81C2112F4402FE1D0114AEC
S21408262002EBC40101F11002097D41F004011171A9
S2140826300D4903F1080201EB42124FF48020506066
S21408264008694FF4807202FA03F303430B61012012
S21408265004E00020704701207047012010BC704736
S2140826600020FBE7FC06002000400A4000F00F00B0
S214082670032864D838B5421E02EB4201374B03EBF9
S214082680C1031B7D13F0040F5BD00B46334901EBE7
S214082690C303197D6FF382011975314B03EB40159F
S2140826A04FF48021C5F8081119694FF480748440E6
S2140826B021EA04011961D5F81C3113F0200F24D043
S2140826C0430103F1402303F52023D3F81C3113F408
S2140826D0005F0BD0430103F1402303F520234FF49A
S2140826E00051C3F818114021C3F81811430103F12B
S2140826F0402303F520232021C3F818111846D3F8E1
S214082700043143F00203C0F8043102EB42031349D4
S21408271001EBC3031B7D13F0010F01D1012038BD67
S214082720084651008B1800EBC3031C7D6FF30004AA
S2140827301C750A4450F832309847012038BD0020EE
S2140827407047430103F1402303F52023D3F81C31D7
S21408275013F0200FB4D1012038BD00BFFC060020BE
S21408276000400A4000F00F0003286CD8F0B583B08C
S214082770440104F1402404F52024D4F80C4114F054
S214082780010F62D0440104F1402404F52024D4F853
S2140827901C4114F0200F5BD1441E04EB44062F4D59
S2140827A005EBC6052D7D15F0040F53D1EFF3108504
S2140827B0B5FA85F56D09019572B6BFF35F8F0026E9
S2140827C0274D2E70019F04EB4405244E06EBC505E5
S2140827D02D7D15F0010F09D0002F3DD00122204B8A
S2140827E01A70BFF35F8F62B600202FE004EB440533
S2140827F01A4E06EBC5052E7D46F001062E752FB13E
S2140828000126174D2E70BFF35F8F62B6134F04EB89
S2140828104405ED007E197260B3600022F2603261F2
S214082820089A7A5111B9B3FA83F1490904EB4404BA
S2140828300A4B03EBC404237D61F341032375094B5C
S2140828409847012002E000207047002003B0F0BD42
S2140828500020FBE70020F9E70020F7E7FC06002049
S214082860DA000020711B08002DE9F04F83B000F055
S2140828700F06032E00F2FF80730103F1402303F5D1
S2140828802023D3F80C7117F0010740F0FA8001F006
S2140828900304022C00F0FB80032C14D0012C02D079
S2140828A04FF0000EE9E05EB1A6F1030E5FFA8EFE69
S2140828B0BEF1010F94BF4FF0000E4FF0010EE8E096
S2140828C04FF0000EE5E04FF0000E4FF00108E2E092
S2140828D04FF0020CF0E012F4C05F40F0CE804FF0EC
S2140828E0000CECE040F2FF72B2FA82F241EA88137A
S2140828F00343C2F11C021343BEF1000F01D04FEA96
S2140829000C273B43C3F309032B43C4F80031D4F820
S2140829100031002B04DB4FF0000EAEE00F22E3E799
S2140829200123C4F80431032300277548012403E073
S214082930013BDBB29E421ED800EB4312D2F80C21B4
S21408294012F0010FF4D05A0102F1402202F52022BB
S214082950D2F80011C1F381115D00A9400F43BFB240
S21408296000EB4311C1F80841D2F8001121F0C0016C
S214082970C2F80011DCE77500344606EB4606614BE4
S21408298003EBC60698464FF00109DFF87CA122E063
S21408299001EB41035B4A52F83340002C74D00EF129
S2140829A008035B01564AD35813F0080F18BF40F0C7
S2140829B0800001EB4101534B03EBC1010246C96895
S2140829C00120A0474FF0000E57E0023501341836B4
S2140829D0E3B2032B4CD8E0B2A64647FA05F212F04B
S2140829E00302F2D0611E01EB410308EBC30393F820
S2140829F014B00BF0010C6FF3000B83F814B06301EE
S214082A0003F1402303F52023D3F800B12BF0C00BC5
S214082A104BEA8212C3F80021C3F80491D3F80021C8
S214082A20002AB5DAD3F8042142F00202C3F80421DA
S214082A30BCF1000FC9D056F80C3C56F8082C9A1A68
S214082A4046F80C2C56F8103C01EB410108EBC10186
S214082A5091F814E056F8181C00919B1A56F8141CA6
S214082A600A44CEF34001D04786460028ADD104E09C
S214082A704FF0010E01E04FF0000E704603B0BDE8BF
S214082A80F08F4FF0000EF8E74FF0000EF5E74FF026
S214082A90000E4FF00208BEF1000F3FF41CAF02F420
S214082AA0C053B3F5006F3FF413AFB3F5805F0CBFA8
S214082AB04FF0030C4FF0010C22F4C05292B274018E
S214082AC004F1402404F52024D4F8005125F47F7539
S214082AD025F00305090101F0300140B20028ACBF1B
S214082AE038460820A2F580639BB2B3F57C4FFFF406
S214082AF0F9AE082A7FF612AF5200013AF4E600BF94
S214082B0000400A40FC0600206527080010B500F0C3
S214082B100F02134B03EB02130021996010F0800F8D
S214082B2016D1501E00EB400001210E4B03EBC000EF
S214082B300D4B984710BDC0F81441D1F81C3113F45A
S214082B40007FFAD1D0F81C3113F4402FF3D1E8E710
S214082B50064901EB42104FF400740146F2E700BF45
S214082B6000430A40FC060020391B080000400A40C3
S214082B7010B50C4B98470C4CA04701210B4B19700D
S214082B80BFF35F8F62B60A4B00221A705A709A70AB
S214082B90DA701A715971A047064B9847064B984742
S214082BA010BD00BF351108006D030800DA000020CC
S214082BB044070020510C08001923080038B52120C6
S214082BC0054B9847054D2846054CA0472120054B40
S214082BD098472846A04738BD8D130800B7A1680057
S214082BE0010000205113080038B52020054B9847EF
S214082BF0054D2846054CA0472020054B98472846F3
S214082C00A04738BD8D130800B7A168000100002052
S214082C105113080070B50D4B98470D4C0D4E0E4DD0
S214082C2004E007213046A8470C4B9847A0473128B0
S214082C30F7D0322803D00A210948A847F6E7052125
S214082C400848A847084B9847F0E700BF712B0800CC
S214082C504D090800E02E0800A10A0800BD2B080050
S214082C60F02E0800E82E0800E92B080070B50F4E75
S214082C700F4D761BB61018BF002405D0013455F842
S214082C80043B9847A642F9D10A4E0B4D00F038F996
S214082C90761BB61018BF002406D0013455F8043B3E
S214082CA09847A642F9D170BD70BD00BF0C2F08002A
S214082CB00C2F0800142F08000C2F0800844641EA41
S214082CC0000313F0030349D1403A23D30B6803608B
S214082CD04B6843608B688360CB68C3600B6903618D
S214082CE04B6943618B698361CB69C3610B6A036275
S214082CF04B6A43628B6A8362CB6AC3620B6B03635D
S214082D004B6B43638B6B8363CB6BC3634030403141
S214082D10403ADBD230320BD30B6803604B68436013
S214082D208B688360CB68C36010301031103AF3D2DA
S214082D300C3205D351F8043B40F8043B043AF9D268
S214082D40043208D0D2071CBF11F8013B00F8013B3B
S214082D5001D30B8803806046704700BF082A13D348
S214082D608B07B1D010F00303AED0C3F10403D21A18
S214082D70DB071CBF11F8013B00F8013BA4D331F870
S214082D80023B20F8023B9FE7043AD9D3013A11F8F0
S214082D90013B00F8013BF9D20B7803704B7843707F
S214082DA08B78837060467047024B13B1024800F078
S214082DB005B8704700000000C92D0800002301462A
S214082DC01A46184600F01EB838B50A4C0A4D641B59
S214082DD0A4100AD004F18043013B05EB8305013CAF
S214082DE055F804399847002CF9D1BDE8384000F06A
S214082DF091B800BF242F0800202F0800704700BF96
S214082E00704700BF2DE9F8432C4D064628689846BB
S214082E100F469146FFF7F2FF294B1C68D4F8483155
S214082E20002B3ED05A681F2A1CDC02F1010E76B130
S214082E30012103EB8204C4F88890D3F888019140F6
S214082E400843022EC3F88801C4F8088123D002324A
S214082E50C3F804E0286843F82270FFF7D1FF002083
S214082E60BDE8F883174B0BB34FF4C870AFF3008078
S214082E700346D8B10020D4F848114FF0010E586028
S214082E8019600246C4F84831C3F88801C3F88C01B3
S214082E90002EDCD0CCE7D3F88C010143C3F88C11A4
S214082EA0D5E704F5A673C4F84831BBE72868FFF7EA
S214082EB0A7FF4FF0FF30BDE8F88300BF08050020E5
S214082EC0FC2E0800000000002000000000000000A3
S214082ED021000000000000002200000001000000A1
S214082EE0677265656E0D0A007265640D0A0000005B
S214082EF06675636B20796F750D0A0000E000002088
S214082F00F8B500BFF8BC08BC9E467047A92D080057
S214082F10DD000800F8B500BFF8BC08BC9E46704740
S208082F20B9000800DF
S214082F24BFF35F8F0138FBD17047000000093D00EE
S214082F34E903080035040800690408006504080065
S214082F4400000000A1070800450408006104080002
S214082F54650408007106080090000020440000205C
S214082F64000000004C000020A400002009024300D2
S214082F74020100C03209040000010202010005240F
S214082F840010010424020205240600010524010396
S214082F94010705830340001009040100020A000023
S214082FA400070581024000000705020240000000F1
S214082FB41201000202000040EB030424000101028F
S214082FC40001000010000020240000200003000078
S214082FD400000000000000000000000000000000E0
S214082FE4040309047368617261706F760000000058
S214082FF4677261645F70726F6A0001000000000007
S21408300400000000CC030020340400209C040020A8
S214083014000000000000000000000000000000009F
S214083024000000000000000000000000000000008F
S214083034000000000000000000000000000000007F
S214083044000000000000000000000000000000006F
S214083054000000000000000000000000000000005F
S214083064000000000000000000000000000000004F
S214083074000000000000000000000000000000003F
S214083084000000000000000000000000000000002F
S214083094000000000000000000000000000000001F
S2140830A4000000000000000001000000000000000E
S2140830B40E33CDAB34126DE6ECDE05000B000000D3
S2140830C400000000000000000000000000000000EF
S2140830D400000000000000000000000000000000DF
S2140830E400000000000000000000000000000000CF
S2140830F400000000000000000000000000000000BF
S21008342400000000000000006407002004
S804080000F3
